{
  "contractName": "DistributorRole",
  "abi": [
    {
      "inputs": [],
      "stateMutability": "nonpayable",
      "type": "constructor"
    },
    {
      "anonymous": false,
      "inputs": [
        {
          "indexed": true,
          "internalType": "address",
          "name": "account",
          "type": "address"
        }
      ],
      "name": "DistributorAdded",
      "type": "event"
    },
    {
      "anonymous": false,
      "inputs": [
        {
          "indexed": true,
          "internalType": "address",
          "name": "account",
          "type": "address"
        }
      ],
      "name": "DistributorRemoved",
      "type": "event"
    },
    {
      "anonymous": false,
      "inputs": [
        {
          "indexed": true,
          "internalType": "address",
          "name": "oldOwner",
          "type": "address"
        },
        {
          "indexed": true,
          "internalType": "address",
          "name": "newOwner",
          "type": "address"
        }
      ],
      "name": "TransferOwnership",
      "type": "event"
    },
    {
      "inputs": [],
      "name": "isOwner",
      "outputs": [
        {
          "internalType": "bool",
          "name": "",
          "type": "bool"
        }
      ],
      "stateMutability": "view",
      "type": "function",
      "constant": true
    },
    {
      "inputs": [],
      "name": "owner",
      "outputs": [
        {
          "internalType": "address",
          "name": "",
          "type": "address"
        }
      ],
      "stateMutability": "view",
      "type": "function",
      "constant": true
    },
    {
      "inputs": [],
      "name": "renounceOwnership",
      "outputs": [],
      "stateMutability": "nonpayable",
      "type": "function"
    },
    {
      "inputs": [
        {
          "internalType": "address",
          "name": "newOwner",
          "type": "address"
        }
      ],
      "name": "transferOwnership",
      "outputs": [],
      "stateMutability": "nonpayable",
      "type": "function"
    },
    {
      "inputs": [
        {
          "internalType": "address",
          "name": "account",
          "type": "address"
        }
      ],
      "name": "isDistributor",
      "outputs": [
        {
          "internalType": "bool",
          "name": "",
          "type": "bool"
        }
      ],
      "stateMutability": "view",
      "type": "function",
      "constant": true
    },
    {
      "inputs": [
        {
          "internalType": "address",
          "name": "account",
          "type": "address"
        }
      ],
      "name": "addDistributor",
      "outputs": [],
      "stateMutability": "nonpayable",
      "type": "function"
    },
    {
      "inputs": [],
      "name": "renounceDistributor",
      "outputs": [],
      "stateMutability": "nonpayable",
      "type": "function"
    }
  ],
  "bytecode": "0x608060405234801561001057600080fd5b50600080546001600160a01b0319163390811782556040519091907f5c486528ec3e3f0ea91181cff8116f02bfa350e03b8b6f12e00765adbb5af85c908290a36100593361005e565b6101f3565b6100696001826100a0565b6040516001600160a01b038216907fddbf200aa634dc3fb81cfd68583dd1040d1c751d335e1d86b631bde3e977fea890600090a250565b6001600160a01b0381166100f05760405162461bcd60e51b81526020600482015260126024820152711d995c9a599e481d1a19481858d8dbdd5b9d60721b60448201526064015b60405180910390fd5b6100fa828261017b565b156101565760405162461bcd60e51b815260206004820152602660248201527f766572696679206163636f756e7420646f6573206e6f742068617665207468696044820152657320726f6c6560d01b60648201526084016100e7565b6001600160a01b0316600090815260209190915260409020805460ff19166001179055565b60006001600160a01b0382166101d35760405162461bcd60e51b815260206004820152601760248201527f4163636f756e74206973206e6f7420766572696669656400000000000000000060448201526064016100e7565b506001600160a01b03166000908152602091909152604090205460ff1690565b610643806102026000396000f3fe608060405234801561001057600080fd5b506004361061007d5760003560e01c80638da5cb5b1161005b5780638da5cb5b146100a75780638f0c86fa146100c75780638f32d59b146100ea578063f2fde38b146100fd57600080fd5b8063644241db14610082578063715018a61461008c5780637250e22414610094575b600080fd5b61008a610110565b005b61008a61014e565b61008a6100a236600461058f565b6101c2565b6000546040516001600160a01b0390911681526020015b60405180910390f35b6100da6100d536600461058f565b6101f8565b60405190151581526020016100be565b6000546001600160a01b031633146100da565b61008a61010b36600461058f565b61020b565b6000546001600160a01b031633146101435760405162461bcd60e51b815260040161013a906105bf565b60405180910390fd5b61014c3361023e565b565b6000546001600160a01b031633146101785760405162461bcd60e51b815260040161013a906105bf565b600080546040516001600160a01b03909116907f5c486528ec3e3f0ea91181cff8116f02bfa350e03b8b6f12e00765adbb5af85c908390a3600080546001600160a01b0319169055565b6000546001600160a01b031633146101ec5760405162461bcd60e51b815260040161013a906105bf565b6101f581610280565b50565b60006102056001836102c2565b92915050565b6000546001600160a01b031633146102355760405162461bcd60e51b815260040161013a906105bf565b6101f58161033a565b6102496001826103fa565b6040516001600160a01b038216907f126174f6cf49c81cdb4a9214c6b8f037bef55b4ec31e4fc776cea2a1c8a88d5990600090a250565b61028b6001826104b9565b6040516001600160a01b038216907fddbf200aa634dc3fb81cfd68583dd1040d1c751d335e1d86b631bde3e977fea890600090a250565b60006001600160a01b03821661031a5760405162461bcd60e51b815260206004820152601760248201527f4163636f756e74206973206e6f74207665726966696564000000000000000000604482015260640161013a565b506001600160a01b03166000908152602091909152604090205460ff1690565b6001600160a01b03811661039f5760405162461bcd60e51b815260206004820152602660248201527f4f6e6c7920746865206f776e65722063616e2063616c6c20746869732066756e60448201526531ba34b7b71760d11b606482015260840161013a565b600080546040516001600160a01b03808516939216917f5c486528ec3e3f0ea91181cff8116f02bfa350e03b8b6f12e00765adbb5af85c91a3600080546001600160a01b0319166001600160a01b0392909216919091179055565b6001600160a01b0381166104415760405162461bcd60e51b815260206004820152600e60248201526d1d995c9a599e481858d8dbdd5b9d60921b604482015260640161013a565b61044b82826102c2565b6104975760405162461bcd60e51b815260206004820152601c60248201527f766572696679206163636f756e7420686173207468697320726f6c6500000000604482015260640161013a565b6001600160a01b0316600090815260209190915260409020805460ff19169055565b6001600160a01b0381166105045760405162461bcd60e51b81526020600482015260126024820152711d995c9a599e481d1a19481858d8dbdd5b9d60721b604482015260640161013a565b61050e82826102c2565b1561056a5760405162461bcd60e51b815260206004820152602660248201527f766572696679206163636f756e7420646f6573206e6f742068617665207468696044820152657320726f6c6560d01b606482015260840161013a565b6001600160a01b0316600090815260209190915260409020805460ff19166001179055565b6000602082840312156105a157600080fd5b81356001600160a01b03811681146105b857600080fd5b9392505050565b6020808252602e908201527f4f6e6c792074686520636f6e7472616374206f776e65722063616e2063616c6c60408201526d103a3434b990333ab731ba34b7b760911b60608201526080019056fea2646970667358221220a59b60af57ae9e42a5677e2cb1b371556b44fbce8ac29308abb6fbdc58551f9164736f6c63430008130033",
  "immutableReferences": {},
  "source": "// SPDX-License-Identifier: MIT\r\npragma solidity ^0.8.0;\r\n\r\n// Import the library 'Roles'\r\nimport \"./Roles.sol\";\r\nimport \"../coconutcore/Ownable.sol\";\r\n \r\n// Define a contract 'DistributorRole' to manage this role - add, remove, check\r\n/**\r\n* @title DistributorRole\r\n* @dev Contract to manage the Distributor Role - add, remove, check. \r\n*/\r\ncontract DistributorRole is Ownable {\r\n  using Roles for Roles.Role;\r\n\r\n  // Define 2 events, one for Adding, and other for Removing\r\n  // Define an Event, Adding a Distributor\r\n  event DistributorAdded(address indexed account);\r\n  // Define an  Event, Removing a Distributor\r\n  event DistributorRemoved(address indexed account);\r\n\r\n  // Define a struct 'distributors' by inheriting from 'Roles' library, struct Role\r\n  Roles.Role private distributors;\r\n\r\n  // In the constructor make the address that deploys this contract the 1st distributor\r\n  constructor() {\r\n    _addDistributor(msg.sender);\r\n  }\r\n\r\n  // Define a modifier that checks to see if msg.sender has the appropriate role\r\n  modifier onlyDistributor() {\r\n    require(isDistributor(msg.sender), \"Caller is not a Distributor\");\r\n    _;\r\n  }\r\n\r\n  // Define a function 'isDistributor' to check this role\r\n  function isDistributor(address account) public view returns (bool) {\r\n    return distributors.has(account);\r\n  }\r\n\r\n  // Define a function 'addDistributor' that adds this role\r\n  function addDistributor(address account) public onlyOwner {\r\n    _addDistributor(account);\r\n  }\r\n\r\n  // Define a function 'renounceDistributor' to renounce this role\r\n  function renounceDistributor() public onlyOwner {\r\n    _removeDistributor(msg.sender);\r\n  }\r\n\r\n  // Define an internal function '_addDistributor' to add this role, called by 'addDistributor'\r\n  function _addDistributor(address account) internal {\r\n    distributors.add(account);\r\n    emit DistributorAdded(account);\r\n\r\n  }\r\n\r\n  // Define an internal function '_removeDistributor' to remove this role, called by 'removeDistributor'\r\n  function _removeDistributor(address account) internal {\r\n    distributors.remove(account);\r\n    emit DistributorRemoved(account);\r\n  }\r\n}",
  "sourcePath": "D:\\Folder_of_Dung\\Project\\Supply-Chain-Solution-Project-Architect\\contracts\\coconutaccesscontrol\\DistributorRole.sol",
  "compiler": {
    "name": "solc",
    "version": "0.8.19+commit.7dd6d404.Emscripten.clang"
  },
  "schemaVersion": "3.4.16",
  "updatedAt": "2025-10-18T16:30:38.754Z",
  "networkType": "ethereum",
  "devdoc": {
    "details": "Contract to manage the Distributor Role - add, remove, check. ",
    "kind": "dev",
    "methods": {
      "isOwner()": {
        "details": "Checks if the calling address is the owner of the contract.",
        "returns": {
          "_0": "true if `msg.sender` is the owner of the contract."
        }
      },
      "owner()": {
        "details": "Look up the address of the owner.",
        "returns": {
          "_0": "the address of the owner."
        }
      },
      "renounceOwnership()": {
        "details": "Allows the current owner to relinquish control of the contract."
      },
      "transferOwnership(address)": {
        "details": "Allows the current owner to transfer control of the contract to a new Owner.",
        "params": {
          "newOwner": "The address to transfer ownership to."
        }
      }
    },
    "title": "DistributorRole",
    "version": 1
  },
  "userdoc": {
    "kind": "user",
    "methods": {
      "renounceOwnership()": {
        "notice": "Renouncing the ownership will leave the contract without an owner. It will not be possible to call the functions with the `onlyOwner` modifier anymore."
      }
    },
    "version": 1
  }
}