{
  "contractName": "FarmerRole",
  "abi": [
    {
      "inputs": [],
      "stateMutability": "nonpayable",
      "type": "constructor"
    },
    {
      "anonymous": false,
      "inputs": [
        {
          "indexed": true,
          "internalType": "address",
          "name": "account",
          "type": "address"
        }
      ],
      "name": "FarmerAdded",
      "type": "event"
    },
    {
      "anonymous": false,
      "inputs": [
        {
          "indexed": true,
          "internalType": "address",
          "name": "account",
          "type": "address"
        }
      ],
      "name": "FarmerRemoved",
      "type": "event"
    },
    {
      "anonymous": false,
      "inputs": [
        {
          "indexed": true,
          "internalType": "address",
          "name": "oldOwner",
          "type": "address"
        },
        {
          "indexed": true,
          "internalType": "address",
          "name": "newOwner",
          "type": "address"
        }
      ],
      "name": "TransferOwnership",
      "type": "event"
    },
    {
      "inputs": [],
      "name": "isOwner",
      "outputs": [
        {
          "internalType": "bool",
          "name": "",
          "type": "bool"
        }
      ],
      "stateMutability": "view",
      "type": "function",
      "constant": true
    },
    {
      "inputs": [],
      "name": "owner",
      "outputs": [
        {
          "internalType": "address",
          "name": "",
          "type": "address"
        }
      ],
      "stateMutability": "view",
      "type": "function",
      "constant": true
    },
    {
      "inputs": [],
      "name": "renounceOwnership",
      "outputs": [],
      "stateMutability": "nonpayable",
      "type": "function"
    },
    {
      "inputs": [
        {
          "internalType": "address",
          "name": "newOwner",
          "type": "address"
        }
      ],
      "name": "transferOwnership",
      "outputs": [],
      "stateMutability": "nonpayable",
      "type": "function"
    },
    {
      "inputs": [
        {
          "internalType": "address",
          "name": "account",
          "type": "address"
        }
      ],
      "name": "isFarmer",
      "outputs": [
        {
          "internalType": "bool",
          "name": "",
          "type": "bool"
        }
      ],
      "stateMutability": "view",
      "type": "function",
      "constant": true
    },
    {
      "inputs": [
        {
          "internalType": "address",
          "name": "account",
          "type": "address"
        }
      ],
      "name": "addFarmer",
      "outputs": [],
      "stateMutability": "nonpayable",
      "type": "function"
    },
    {
      "inputs": [],
      "name": "renounceFarmer",
      "outputs": [],
      "stateMutability": "nonpayable",
      "type": "function"
    }
  ],
  "bytecode": "0x608060405234801561001057600080fd5b50600080546001600160a01b0319163390811782556040519091907f5c486528ec3e3f0ea91181cff8116f02bfa350e03b8b6f12e00765adbb5af85c908290a36100593361005e565b6101f3565b6100696001826100a0565b6040516001600160a01b038216907f2e0ded4123377a3c2bc9a26f1717655a129e2f20752924d42e730ec89c83dbd090600090a250565b6001600160a01b0381166100f05760405162461bcd60e51b81526020600482015260126024820152711d995c9a599e481d1a19481858d8dbdd5b9d60721b60448201526064015b60405180910390fd5b6100fa828261017b565b156101565760405162461bcd60e51b815260206004820152602660248201527f766572696679206163636f756e7420646f6573206e6f742068617665207468696044820152657320726f6c6560d01b60648201526084016100e7565b6001600160a01b0316600090815260209190915260409020805460ff19166001179055565b60006001600160a01b0382166101d35760405162461bcd60e51b815260206004820152601760248201527f4163636f756e74206973206e6f7420766572696669656400000000000000000060448201526064016100e7565b506001600160a01b03166000908152602091909152604090205460ff1690565b61063f806102026000396000f3fe608060405234801561001057600080fd5b506004361061007d5760003560e01c80638da5cb5b1161005b5780638da5cb5b146100a75780638f32d59b146100c7578063b9429069146100e6578063f2fde38b146100f957600080fd5b8063715018a61461008257806380c3f96d1461008c57806380fc0ce41461009f575b600080fd5b61008a61010c565b005b61008a61009a36600461058b565b610189565b61008a6101bf565b6000546040516001600160a01b0390911681526020015b60405180910390f35b6000546001600160a01b031633145b60405190151581526020016100be565b6100d66100f436600461058b565b6101f4565b61008a61010736600461058b565b610207565b6000546001600160a01b0316331461013f5760405162461bcd60e51b8152600401610136906105bb565b60405180910390fd5b600080546040516001600160a01b03909116907f5c486528ec3e3f0ea91181cff8116f02bfa350e03b8b6f12e00765adbb5af85c908390a3600080546001600160a01b0319169055565b6000546001600160a01b031633146101b35760405162461bcd60e51b8152600401610136906105bb565b6101bc8161023a565b50565b6000546001600160a01b031633146101e95760405162461bcd60e51b8152600401610136906105bb565b6101f23361027c565b565b60006102016001836102be565b92915050565b6000546001600160a01b031633146102315760405162461bcd60e51b8152600401610136906105bb565b6101bc81610336565b6102456001826103f6565b6040516001600160a01b038216907f2e0ded4123377a3c2bc9a26f1717655a129e2f20752924d42e730ec89c83dbd090600090a250565b6102876001826104cc565b6040516001600160a01b038216907fa5e0f060af304ab17dd418c7927e3da3ae7868189bf387aee09ab179ccc572f290600090a250565b60006001600160a01b0382166103165760405162461bcd60e51b815260206004820152601760248201527f4163636f756e74206973206e6f742076657269666965640000000000000000006044820152606401610136565b506001600160a01b03166000908152602091909152604090205460ff1690565b6001600160a01b03811661039b5760405162461bcd60e51b815260206004820152602660248201527f4f6e6c7920746865206f776e65722063616e2063616c6c20746869732066756e60448201526531ba34b7b71760d11b6064820152608401610136565b600080546040516001600160a01b03808516939216917f5c486528ec3e3f0ea91181cff8116f02bfa350e03b8b6f12e00765adbb5af85c91a3600080546001600160a01b0319166001600160a01b0392909216919091179055565b6001600160a01b0381166104415760405162461bcd60e51b81526020600482015260126024820152711d995c9a599e481d1a19481858d8dbdd5b9d60721b6044820152606401610136565b61044b82826102be565b156104a75760405162461bcd60e51b815260206004820152602660248201527f766572696679206163636f756e7420646f6573206e6f742068617665207468696044820152657320726f6c6560d01b6064820152608401610136565b6001600160a01b0316600090815260209190915260409020805460ff19166001179055565b6001600160a01b0381166105135760405162461bcd60e51b815260206004820152600e60248201526d1d995c9a599e481858d8dbdd5b9d60921b6044820152606401610136565b61051d82826102be565b6105695760405162461bcd60e51b815260206004820152601c60248201527f766572696679206163636f756e7420686173207468697320726f6c65000000006044820152606401610136565b6001600160a01b0316600090815260209190915260409020805460ff19169055565b60006020828403121561059d57600080fd5b81356001600160a01b03811681146105b457600080fd5b9392505050565b6020808252602e908201527f4f6e6c792074686520636f6e7472616374206f776e65722063616e2063616c6c60408201526d103a3434b990333ab731ba34b7b760911b60608201526080019056fea26469706673582212206ecb366fa6d52e5bca3ebe2b67774074acc52e0a11cddc90cf3af1d68cd3df7964736f6c63430008130033",
  "immutableReferences": {},
  "source": "// SPDX-License-Identifier: MIT\r\npragma solidity ^0.8.0;\r\n\r\n// Import the library 'Roles'\r\nimport \"./Roles.sol\";\r\nimport \"../coconutcore/Ownable.sol\";\r\n\r\n// Define a contract 'FarmerRole' to manage this role - add, remove, check\r\n/**\r\n* @title FarmerRole\r\n* @dev Contract to manage the Farmer Role - add, remove, check. \r\n*/\r\ncontract FarmerRole is Ownable {\r\n  using Roles for Roles.Role;\r\n\r\n  // Define 2 events, one for Adding, and other for Removing\r\n  event FarmerAdded(address indexed account);\r\n  event FarmerRemoved(address indexed account);\r\n\r\n  // Define a struct 'farmers' by inheriting from 'Roles' library, struct Role\r\n  Roles.Role private farmers;\r\n\r\n  // In the constructor make the address that deploys this contract the 1st farmer\r\n  constructor() {\r\n    _addFarmer(msg.sender);\r\n  }\r\n\r\n  // Define a modifier that checks to see if msg.sender has the appropriate role\r\n  modifier onlyFarmer() {\r\n    require(isFarmer(msg.sender), \"Caller is not a farmer.\");\r\n    _;\r\n  }\r\n\r\n  // Define a function 'isFarmer' to check this role\r\n  function isFarmer(address account) public view returns (bool) {\r\n    return farmers.has(account);\r\n  }\r\n\r\n  // Define a function 'addFarmer' that adds this role\r\n  function addFarmer(address account) public onlyOwner {\r\n    _addFarmer(account);\r\n  }\r\n\r\n  // Define a function 'renounceFarmer' to renounce this role\r\n  function renounceFarmer() public onlyOwner {\r\n    _removeFarmer(msg.sender);\r\n  }\r\n\r\n  // Define an internal function '_addFarmer' to add this role, called by 'addFarmer'\r\n  function _addFarmer(address account) internal {\r\n    farmers.add(account);\r\n    emit FarmerAdded(account);\r\n  }\r\n\r\n  // Define an internal function '_removeFarmer' to remove this role, called by 'removeFarmer'\r\n  function _removeFarmer(address account) internal {\r\n    farmers.remove(account);\r\n    emit FarmerRemoved(account);\r\n  }\r\n}",
  "sourcePath": "D:\\Folder_of_Dung\\Project\\Supply-Chain-Solution-Project-Architect\\contracts\\coconutaccesscontrol\\FarmerRole.sol",
  "compiler": {
    "name": "solc",
    "version": "0.8.19+commit.7dd6d404.Emscripten.clang"
  },
  "schemaVersion": "3.4.16",
  "updatedAt": "2025-10-18T16:30:38.750Z",
  "networkType": "ethereum",
  "devdoc": {
    "details": "Contract to manage the Farmer Role - add, remove, check. ",
    "kind": "dev",
    "methods": {
      "isOwner()": {
        "details": "Checks if the calling address is the owner of the contract.",
        "returns": {
          "_0": "true if `msg.sender` is the owner of the contract."
        }
      },
      "owner()": {
        "details": "Look up the address of the owner.",
        "returns": {
          "_0": "the address of the owner."
        }
      },
      "renounceOwnership()": {
        "details": "Allows the current owner to relinquish control of the contract."
      },
      "transferOwnership(address)": {
        "details": "Allows the current owner to transfer control of the contract to a new Owner.",
        "params": {
          "newOwner": "The address to transfer ownership to."
        }
      }
    },
    "title": "FarmerRole",
    "version": 1
  },
  "userdoc": {
    "kind": "user",
    "methods": {
      "renounceOwnership()": {
        "notice": "Renouncing the ownership will leave the contract without an owner. It will not be possible to call the functions with the `onlyOwner` modifier anymore."
      }
    },
    "version": 1
  }
}