{
  "contractName": "RetailerRole",
  "abi": [
    {
      "inputs": [],
      "stateMutability": "nonpayable",
      "type": "constructor"
    },
    {
      "anonymous": false,
      "inputs": [
        {
          "indexed": true,
          "internalType": "address",
          "name": "account",
          "type": "address"
        }
      ],
      "name": "RetailerAdded",
      "type": "event"
    },
    {
      "anonymous": false,
      "inputs": [
        {
          "indexed": true,
          "internalType": "address",
          "name": "account",
          "type": "address"
        }
      ],
      "name": "RetailerRemoved",
      "type": "event"
    },
    {
      "anonymous": false,
      "inputs": [
        {
          "indexed": true,
          "internalType": "address",
          "name": "oldOwner",
          "type": "address"
        },
        {
          "indexed": true,
          "internalType": "address",
          "name": "newOwner",
          "type": "address"
        }
      ],
      "name": "TransferOwnership",
      "type": "event"
    },
    {
      "inputs": [],
      "name": "isOwner",
      "outputs": [
        {
          "internalType": "bool",
          "name": "",
          "type": "bool"
        }
      ],
      "stateMutability": "view",
      "type": "function",
      "constant": true
    },
    {
      "inputs": [],
      "name": "owner",
      "outputs": [
        {
          "internalType": "address",
          "name": "",
          "type": "address"
        }
      ],
      "stateMutability": "view",
      "type": "function",
      "constant": true
    },
    {
      "inputs": [],
      "name": "renounceOwnership",
      "outputs": [],
      "stateMutability": "nonpayable",
      "type": "function"
    },
    {
      "inputs": [
        {
          "internalType": "address",
          "name": "newOwner",
          "type": "address"
        }
      ],
      "name": "transferOwnership",
      "outputs": [],
      "stateMutability": "nonpayable",
      "type": "function"
    },
    {
      "inputs": [
        {
          "internalType": "address",
          "name": "account",
          "type": "address"
        }
      ],
      "name": "isRetailer",
      "outputs": [
        {
          "internalType": "bool",
          "name": "",
          "type": "bool"
        }
      ],
      "stateMutability": "view",
      "type": "function",
      "constant": true
    },
    {
      "inputs": [
        {
          "internalType": "address",
          "name": "account",
          "type": "address"
        }
      ],
      "name": "addRetailer",
      "outputs": [],
      "stateMutability": "nonpayable",
      "type": "function"
    },
    {
      "inputs": [],
      "name": "renounceRetailer",
      "outputs": [],
      "stateMutability": "nonpayable",
      "type": "function"
    }
  ],
  "bytecode": "0x608060405234801561001057600080fd5b50600080546001600160a01b0319163390811782556040519091907f5c486528ec3e3f0ea91181cff8116f02bfa350e03b8b6f12e00765adbb5af85c908290a36100593361005e565b6101f3565b6100696001826100a0565b6040516001600160a01b038216907f71ae26cad02663e3d92efd6ec56031a80d74a20c0ab4183faa8bf262261c9baa90600090a250565b6001600160a01b0381166100f05760405162461bcd60e51b81526020600482015260126024820152711d995c9a599e481d1a19481858d8dbdd5b9d60721b60448201526064015b60405180910390fd5b6100fa828261017b565b156101565760405162461bcd60e51b815260206004820152602660248201527f766572696679206163636f756e7420646f6573206e6f742068617665207468696044820152657320726f6c6560d01b60648201526084016100e7565b6001600160a01b0316600090815260209190915260409020805460ff19166001179055565b60006001600160a01b0382166101d35760405162461bcd60e51b815260206004820152601760248201527f4163636f756e74206973206e6f7420766572696669656400000000000000000060448201526064016100e7565b506001600160a01b03166000908152602091909152604090205460ff1690565b610643806102026000396000f3fe608060405234801561001057600080fd5b506004361061007d5760003560e01c80638ec4f5051161005b5780638ec4f505146100cf5780638f32d59b146100e2578063db0e6a2f146100f5578063f2fde38b146100fd57600080fd5b80635da09b8814610082578063715018a6146100aa5780638da5cb5b146100b4575b600080fd5b61009561009036600461058f565b610110565b60405190151581526020015b60405180910390f35b6100b2610123565b005b6000546040516001600160a01b0390911681526020016100a1565b6100b26100dd36600461058f565b6101a0565b6000546001600160a01b03163314610095565b6100b26101d6565b6100b261010b36600461058f565b61020b565b600061011d60018361023e565b92915050565b6000546001600160a01b031633146101565760405162461bcd60e51b815260040161014d906105bf565b60405180910390fd5b600080546040516001600160a01b03909116907f5c486528ec3e3f0ea91181cff8116f02bfa350e03b8b6f12e00765adbb5af85c908390a3600080546001600160a01b0319169055565b6000546001600160a01b031633146101ca5760405162461bcd60e51b815260040161014d906105bf565b6101d3816102b6565b50565b6000546001600160a01b031633146102005760405162461bcd60e51b815260040161014d906105bf565b610209336102f8565b565b6000546001600160a01b031633146102355760405162461bcd60e51b815260040161014d906105bf565b6101d38161033a565b60006001600160a01b0382166102965760405162461bcd60e51b815260206004820152601760248201527f4163636f756e74206973206e6f74207665726966696564000000000000000000604482015260640161014d565b506001600160a01b03166000908152602091909152604090205460ff1690565b6102c16001826103fa565b6040516001600160a01b038216907f71ae26cad02663e3d92efd6ec56031a80d74a20c0ab4183faa8bf262261c9baa90600090a250565b6103036001826104d0565b6040516001600160a01b038216907fdb7176e79cffef81cb01767dd0447a0b24bb72ca9778d4b245581086b2a7e6db90600090a250565b6001600160a01b03811661039f5760405162461bcd60e51b815260206004820152602660248201527f4f6e6c7920746865206f776e65722063616e2063616c6c20746869732066756e60448201526531ba34b7b71760d11b606482015260840161014d565b600080546040516001600160a01b03808516939216917f5c486528ec3e3f0ea91181cff8116f02bfa350e03b8b6f12e00765adbb5af85c91a3600080546001600160a01b0319166001600160a01b0392909216919091179055565b6001600160a01b0381166104455760405162461bcd60e51b81526020600482015260126024820152711d995c9a599e481d1a19481858d8dbdd5b9d60721b604482015260640161014d565b61044f828261023e565b156104ab5760405162461bcd60e51b815260206004820152602660248201527f766572696679206163636f756e7420646f6573206e6f742068617665207468696044820152657320726f6c6560d01b606482015260840161014d565b6001600160a01b0316600090815260209190915260409020805460ff19166001179055565b6001600160a01b0381166105175760405162461bcd60e51b815260206004820152600e60248201526d1d995c9a599e481858d8dbdd5b9d60921b604482015260640161014d565b610521828261023e565b61056d5760405162461bcd60e51b815260206004820152601c60248201527f766572696679206163636f756e7420686173207468697320726f6c6500000000604482015260640161014d565b6001600160a01b0316600090815260209190915260409020805460ff19169055565b6000602082840312156105a157600080fd5b81356001600160a01b03811681146105b857600080fd5b9392505050565b6020808252602e908201527f4f6e6c792074686520636f6e7472616374206f776e65722063616e2063616c6c60408201526d103a3434b990333ab731ba34b7b760911b60608201526080019056fea2646970667358221220533a15ac4db0f8f5fa3b3f75df573f51a441d04fbffce7ff2d374d534ee08f4164736f6c63430008130033",
  "immutableReferences": {},
  "source": "// SPDX-License-Identifier: MIT\r\npragma solidity ^0.8.0;\r\n\r\n// Import the library 'Roles'\r\nimport \"./Roles.sol\";\r\nimport \"../coconutcore/Ownable.sol\";\r\n\r\n// Define a contract 'RetailerRole' to manage this role - add, remove, check\r\n/**\r\n* @title RetailerRole\r\n* @dev Contract to manage the Role Retailer. \r\n*/\r\ncontract RetailerRole is Ownable {\r\n  using Roles for Roles.Role;\r\n\r\n  // Define 2 events, one for Adding, and other for Removing\r\n  event RetailerAdded(address indexed account);\r\n  event RetailerRemoved(address indexed account);\r\n  \r\n  // Define a struct 'retailers' by inheriting from 'Roles' library, struct Role\r\n  Roles.Role private retailers;\r\n\r\n  // In the constructor make the address that deploys this contract the 1st retailer\r\n  constructor() {\r\n    _addRetailer(msg.sender);\r\n  }\r\n\r\n  // Define a modifier that checks to see if msg.sender has the appropriate role\r\n  modifier onlyRetailer() {\r\n    require(isRetailer(msg.sender), \"Caller is not a retailer.\");\r\n    _;\r\n  }\r\n\r\n  // Define a function 'isRetailer' to check this role\r\n  function isRetailer(address account) public view returns (bool) {\r\n    return retailers.has(account);\r\n  }\r\n\r\n  // Define a function 'addRetailer' that adds this role\r\n  function addRetailer(address account) public onlyOwner {\r\n    _addRetailer(account);\r\n  }\r\n\r\n  // Define a function 'renounceRetailer' to renounce this role\r\n  function renounceRetailer() public onlyOwner {\r\n    _removeRetailer(msg.sender);\r\n  }\r\n\r\n  // Define an internal function '_addRetailer' to add this role, called by 'addRetailer'\r\n  function _addRetailer(address account) internal {\r\n    retailers.add(account);\r\n    emit RetailerAdded(account);\r\n  }\r\n\r\n  // Define an internal function '_removeRetailer' to remove this role, called by 'removeRetailer'\r\n  function _removeRetailer(address account) internal {\r\n    retailers.remove(account);\r\n    emit RetailerRemoved(account);\r\n  }\r\n}",
  "sourcePath": "D:\\Folder_of_Dung\\Project\\Supply-Chain-Solution-Project-Architect\\contracts\\coconutaccesscontrol\\RetailerRole.sol",
  "compiler": {
    "name": "solc",
    "version": "0.8.19+commit.7dd6d404.Emscripten.clang"
  },
  "schemaVersion": "3.4.16",
  "updatedAt": "2025-10-18T16:30:38.759Z",
  "networkType": "ethereum",
  "devdoc": {
    "details": "Contract to manage the Role Retailer. ",
    "kind": "dev",
    "methods": {
      "isOwner()": {
        "details": "Checks if the calling address is the owner of the contract.",
        "returns": {
          "_0": "true if `msg.sender` is the owner of the contract."
        }
      },
      "owner()": {
        "details": "Look up the address of the owner.",
        "returns": {
          "_0": "the address of the owner."
        }
      },
      "renounceOwnership()": {
        "details": "Allows the current owner to relinquish control of the contract."
      },
      "transferOwnership(address)": {
        "details": "Allows the current owner to transfer control of the contract to a new Owner.",
        "params": {
          "newOwner": "The address to transfer ownership to."
        }
      }
    },
    "title": "RetailerRole",
    "version": 1
  },
  "userdoc": {
    "kind": "user",
    "methods": {
      "renounceOwnership()": {
        "notice": "Renouncing the ownership will leave the contract without an owner. It will not be possible to call the functions with the `onlyOwner` modifier anymore."
      }
    },
    "version": 1
  }
}